:100000000C9434000C94CA000C94A9000C94510078
:100010000C9451000C9451000C9451000C9451001C
:100020000C9451000C9451000C9451000C9451000C
:100030000C9451000C9451000C9470000C945100DD
:100040000C9451000C9451000C9451000C945100EC
:100050000C9451000C9451000C9451000C945100DC
:100060000C9451000C94510011241FBECFEFD8E026
:10007000DEBFCDBF11E0A0E0B1E0E2EAF4E002C0F3
:1000800005900D92A631B107D9F721E0A6E1B1E0C4
:1000900001C01D92A032B207E1F70E94EE000C945D
:1000A0004F020C940000EEE6F0E080818D7F8083AB
:1000B00016BC109217011092190110921A01109299
:1000C0001B0110921C0110921F0110921E01089535
:1000D00016BCA99AEEE6F0E08081826080830895E4
:1000E0001F920F920FB60F9211248F939F93AF938D
:1000F000BF938091190190911A01A0911B01B091B9
:100100001C010A96A11DB11D8093190190931A013B
:10011000A0931B01B0931C01809117018F5F809306
:10012000170180911701843659F480911E01909136
:100130001F01019690931F0180931E0110921701D9
:10014000BF91AF919F918F910F900FBE0F901F9015
:1001500018951F920F920FB60F9211248F938091D2
:1001600016018F5F8093160180911601873461F428
:100170008FE08A95F1F700C0549A00C000005498AF
:10018000E99882E0809318018F910F900FBE0F9035
:100190001F9018951F920F920FB60F9211248F93F4
:1001A000809116018F5F80931601809116018C3526
:1001B00079F48EE08A95F1F700C05C9A549A00C0F9
:1001C0005C985498E8981092160181E08093180189
:1001D0008F910F900FBE0F901F901895CF93DF93C4
:1001E000CDB7DEB72C970FB6F894DEBF0FBECDBFEC
:1001F000CE0101967C018CE0F70111928A95E9F716
:1002000016BC8FE987BD84B5826084BD85B58160E9
:1002100085BD5D9A259A78942D9A4D9B75C083E093
:10022000809369004A9B6DC04A99FECF4A9BFECFDE
:100230000E9468008091190190911A01A0911B0100
:10024000B0911C0188339444A140B10598F30E94F9
:10025000530081E08DBB809118018130E1F788E087
:10026000809369004B99FECF0E946800809119012C
:1002700090911A01A0911B01B0911C01803A994202
:10028000A440B10598F30E94530082E08DBB809199
:1002900018018230E1F70E94680010E000E083B1AD
:1002A000199902C00F5F1F4F8FE193E00197F1F79B
:1002B00000C0000080911E0190911F01883E934074
:1002C00070F30E9453000536110518F181E0809308
:1002D0001D012D9810E080E0CC24C394D12CEFE9CF
:1002E000FFE03197F1F700C00000F89490E020E0C3
:1002F00049EE53E04E9B10C041505109D9F710E030
:10030000F5CF4A9BFECF94CF4E9BFECF199BFECFDD
:10031000C2CF10921D01DDCF4E9BFECF4F9B07C079
:10032000A601092E01C0440F0A94EAF7242B9F5F0F
:100330009830F1F6F701E10FF11D20831F5F1C30AB
:10034000A8F27894298126FF5CC024FD5AC027FDBD
:1003500058C09A81911166C09F81911163C09B81A1
:1003600030E6390F333040F0913009F05BC09C81AA
:100370009350953908F456C08F5F8E3008F4AFCF94
:100380002D9A209A289880911D01811102C0219AEE
:100390002998FFEF24E684E0F15020408040E1F707
:1003A00000C0000082E1A82E81E0B82EF5019190F6
:1003B0005F0100E0F5E686E091E09F1639F021E666
:1003C0008CE091E0921202C080E091E0E02FE6958F
:1003D000E695E695E80FF92FF11D808190E0202F3A
:1003E000277002C0959587952A95E2F780FD1CC07D
:1003F000209A28988FE79EE30197F1F700C000004C
:100400002CC090E0882309F46ACF213011F09923A1
:1004100039F09A81911104C09F81992309F4ACCFDE
:100420008150ABCF91E0EECF80911D018823A9F1DF
:10043000209A0E946800199B2EC0289A8091190169
:1004400090911A01A0911B01B0911C01803A9F402C
:10045000A105B10580F30E9453000F5F0C3209F033
:10046000A9CF209A28989FEFE4E6F4E09150E0406D
:10047000F040E1F700C0000024E1A21621E0B2063E
:1004800009F094CF80911D01811101C0219820981D
:100490002D988BE024CF2898D1CF2098ABCFF8941B
:0204A000FFCF8C
:1004A20059C94B5DFA0259C94B5DEA0259C94B5D04
:0604B200DA02696969002D
:00000001FF
