:100000000C9434000C9451000C9451000C94510049
:100010000C9451000C9451000C9451000C9451001C
:100020000C9451000C9451000C9451000C9451000C
:100030000C9451000C9451000C9470000C945100DD
:100040000C9451000C9451000C9451000C945100EC
:100050000C9451000C9451000C9451000C945100DC
:100060000C9451000C94510011241FBECFEFD8E026
:10007000DEBFCDBF11E0A0E0B1E0E4E9F3E002C0F3
:1000800005900D92A631B107D9F721E0A6E1B1E0C4
:1000900001C01D92AE31B207E1F70E94A9000C9495
:1000A000C8010C940000EEE6F0E080818D7F808333
:1000B00016BC10921601109217011092180110929E
:1000C000190110921A0110921D0110921C0108953D
:1000D00016BCA99AEEE6F0E08081826080830895E4
:1000E0001F920F920FB60F9211248F939F93AF938D
:1000F000BF938091170190911801A0911901B091BF
:100100001A010A96A11DB11D809317019093180141
:10011000A0931901B0931A01809116018F5F80930B
:10012000160180911601843659F480911C0190913A
:100130001D01019690931D0180931C0110921601E0
:10014000BF91AF919F918F910F900FBE0F901F9015
:100150001895CF93DF93CDB7DEB72C970FB6F894F1
:10016000DEBF0FBECDBFCE0101967C018CE0F70152
:1001700011928A95E9F716BC8FE987BD84B5826034
:1001800084BD85B5816085BD5D9A259A78942D9A48
:100190004E9BFECF199BFECF0E94680010E000E04E
:1001A00083B1199902C00F5F1F4F8FE193E0019750
:1001B000F1F700C0000080911C0190911D01883E64
:1001C000934070F30E94530005361105D8F081E08A
:1001D00080931B012D9810E080E0CC24C394D12C97
:1001E000EFE9FFE03197F1F700C00000F89490E0EC
:1001F00020E049EE53E04E9B08C041505109D9F729
:1002000010E0F5CF10921B01E5CF4E9BFECF4F9B28
:1002100007C0A601092E01C0440F0A94EAF7242B57
:100220009F5F983031F7F701E10FF11D20831F5FC9
:100230001C30E8F27894298126FF5CC024FD5AC066
:1002400027FD58C09A81911166C09F81911163C0AA
:100250009B8130E6390F333040F0913009F05BC0BC
:100260009C819350953908F456C08F5F8E3008F406
:10027000B7CF2D9A209A289880911B01811102C036
:10028000219A2998FFEF24E684E0F1502040804035
:10029000E1F700C0000082E1A82E81E0B82EF50150
:1002A00091905F0100E0F5E686E091E09F1639F05D
:1002B00021E68CE091E0921202C080E091E0E02F14
:1002C000E695E695E695E80FF92FF11D808190E01F
:1002D000202F277002C0959587952A95E2F780FD1B
:1002E0001CC0209A28988FE79EE30197F1F700C081
:1002F00000002CC090E0882309F472CF213011F067
:10030000992339F09A81911104C09F81992309F4AE
:10031000ACCF8150ABCF91E0EECF80911B01882311
:10032000A9F1209A0E946800199B2EC0289A8091FA
:10033000170190911801A0911901B0911A01803A0A
:100340009F40A105B10580F30E9453000F5F0C325E
:1003500009F0A9CF209A28989FEFE4E6F4E09150A5
:10036000E040F040E1F700C0000024E1A21621E0E7
:10037000B20609F094CF80911B01811101C0219830
:1003800020982D988BE02CCF2898D1CF2098ABCFF8
:04039000F894FFCF0F
:1003940059C94B5DFA0259C94B5DEA0259C94B5D13
:0603A400DA026161610054
:00000001FF
